:020000040800F2
:1000000060040020C9000008310400082F04000823
:1000100000000000000000000000000000000000E0
:100020000000000000000000000000006106000861
:10003000000000000000000085040008FD06000824
:10004000F900000800000000F9000008F9000008AD
:10005000F9000008F9000008F9000008F90000089C
:1000600000000000F9000008F9000008F90000088D
:10007000C5010008F9000008F900000800000000B0
:10008000F90000080000000000000000F90000086E
:10009000F9000008F9000008F9000008F90000085C
:1000A000F9000008F9000008F9000008F90000084C
:1000B000610700080348854600F072F800480047D1
:1000C000210D0008600400200C4880F308880C48CB
:1000D0000168090E0B4A914205D10B480B4901609A
:1000E0000B480C4901600C4880470C480047FEE76C
:1000F000FEE7FEE7FEE7FEE7FEE700006004002003
:10010000040000001F000000181002400100000061
:10011000000001400000000001070008B5000008D1
:1001200030B50B46014600202022012409E00D468F
:10013000D5409D4205D31D469540491B2546954017
:1001400040191546521E002DF1DC30BD70B500245B
:100150002546002801DA01244042002901DA012560
:100160004942FFF7DDFFAC4200D04042002C00D0F6
:10017000494270BD421E5378521C002BFBD10B78B4
:100180001370491C521C002BF9D1704703460A78A2
:100190000270401C491C002AF9D118467047000023
:1001A000064C0125064E05E0E36807CC2B430C3CCA
:1001B00098471034B442F7D3FFF780FFA811000826
:1001C000C8110008F8B51B4F0421384600F080F82C
:1001D000002813D00421384600F037F8164C607818
:1001E000164D0126030000F0BDFB05040A10171D83
:1001F0000900384600F05BF828806670F8BD384684
:1002000000F055F86880022004E0384600F04FF80E
:10021000A88003206070F8BD384600F048F8E880F8
:100220000420F7E7384600F042F82881002060708B
:100230002670F8BD002401403C000020540000203E
:10024000836A0B43836242617047016070470029F3
:10025000816801D0012200E00222114381607047D1
:10026000064910B5884208D144150121204600F006
:100270002FF90021204600F02BF910BD0024014089
:10028000826800210123DB071A4382600F231B03CE
:100290008268491CD20FD207994201D0002AF7D1B7
:1002A0008168002901DB006C704700207047006CFA
:1002B00080B2704702460020CB0104D5926801232A
:1002C0001B069A4300E012680A4200D001207047E2
:1002D00002465368002012680B400A4202D0002BED
:1002E00000D001207047002A426801D00A4300E094
:1002F0008A4342607047000030B5C368084A8C6882
:1003000013400A680D792243CC686D032C432243C5
:100310000C69496922430A431A43C26030BD000098
:1003200003D2FFFF816804221143816070470021DE
:10033000016001718160C16001614161704700002D
:100340000349096848430A38401EFDD2704700003F
:10035000380000207D2100B5C9004843FFF7F0FFB9
:1003600000BD000000B58BB0684600F0BDF8044940
:100370000198FFF7D5FE034908600BB000BD0000EF
:1003800000093D0038000020F0B50022012423467A
:100390000D6893401D409D422AD10D79012D01D059
:1003A000022D12D1876855000326AE40B7438760FF
:1003B0004E79AE4085682E43866085889D43858052
:1003C00085888B7993401D438580066855000323FB
:1003D000AB409E4306600E790768AE403E43066020
:1003E000C6689E43C660CB79AB40C5682B43C360EB
:1003F000521C102ACBD3F0BD4B07DB0E9A40C90824
:1004000010B589000818016A0F249C40A1430162BD
:10041000016A1143016210BD0246128A00200A429D
:1004200000D0012070470185704781617047FEE769
:100430007047000030B5837801210278002B15D079
:1004400094080E4BA400E41823689207D50EFF22EF
:10045000AA40934342789207120EAA401A432260A0
:100460000078C006C00E8140054804E0D006C00EEA
:10047000814003488030016030BD000000E400E0AE
:1004800000E100E070470000044A0029516901D0F2
:10049000014300E0814351617047000000100240B9
:1004A000044A0029D16901D0014300E08143D161B0
:1004B0007047000000100240044A0029916901D0F1
:1004C000014300E081439161704700000010024049
:1004D000044A0029D16801D0014300E08143D16082
:1004E0007047000000100240F8B5564D0446686899
:1004F00000210C22544E104005D0042803D00828B7
:1005000003D00C281AD026601AE0696868680322B4
:100510008902D2030F0F1040BF1C00280AD0E86ADE
:100520000107090F3046491CFFF7FAFD78430146E1
:10053000216005E0454839464143F9E744482060D9
:100540006868444F0006000F3B5C20680246DA40B2
:1005500062606B685B055B0FFB5CDA40A2602B6B33
:10056000DB0501D43C4B05E06B685B0401D4530808
:1005700000E09308E3602B6B5F06384B03D4374FE2
:100580001237276100E023612F6BFF0601D46661FB
:1005900000E060612F6BBF070ED02F6BBF07BF0F4E
:1005A000012F0BD02F6BBF07BF0F022F08D02F6B6F
:1005B000FF43BF0706D006E0A26104E0A06102E0AD
:1005C000A36100E0A6612F6BBF03BF0F0FD02F6B9D
:1005D000BF03BF0F012F0CD02F6BBF03BF0F022F24
:1005E00009D02F6BBF03BF0F032F06D006E0E261D7
:1005F00004E0E06102E0E36100E0E6612F6B3F03AD
:10060000BF0F0FD02A6B1203920F012A0CD0286B58
:100610000003800F022809D0286B0003800F0328F5
:1006200006D006E0226204E0206202E0236200E0DD
:100630002662286B000602D405486062F8BD61623C
:10064000F8BD00000010024000127A0000093D00D1
:10065000006CDC023E000020809FD500008000007E
:10066000704700001CB500212248019100910268EA
:1006700001231B041A4302605B0005221203046875
:100680001C400094019C641C0194009C002C02D12D
:10069000019C9442F3D10268920328D50121009174
:1006A000154A11211160416841604168416041680B
:1006B0007F22D20391434160416811221204114309
:1006C000416001680122120611430160016889013D
:1006D000FCD54168890889004160416802221143C4
:1006E000416041680907890F0229FAD11CBD0091B8
:1006F0001CBD0000001002400020024070470000B6
:1007000010B5144801680122114301604168124A82
:10071000114041600168114A1140016001680122E5
:1007200092049143016041683F2212049143416069
:10073000C16A09090901C162016BFF225432914368
:100740000163416B49084900416300218160FFF763
:1007500089FF10BD001002400CB8FF08FFFFF6FE35
:1007600010B5064C0449204600F05DF8002802D080
:10077000204600F0C9F810BD050105000044004006
:100780000029016802D00122114301E04908490013
:100790000160704730B5012189B04804FFF774FE4D
:1007A00001218803FFF788FE0921CD060122284692
:1007B000FFF722FE01220A212846FFF71DFE012035
:1007C0004002069002206946087701224A770024F9
:1007D0008C77CA7706A92846FFF7D6FD012080024C
:1007E000069006A92846FFF7CFFDE12005944002B8
:1007F00001940294039400900C20064C04906946E6
:10080000204600F02DF801212046FFF7B9FF09B07E
:1008100030BD0000003801400246D26900200A4283
:1008200000D00120704730B50A04130E012214468F
:1008300000258C40012B0ED0022B0ED08368090CB2
:100840002340C0698A401040002B02D0002800D00D
:100850000125284630BD0368F1E74368EFE7000053
:1008600030B5044600688BB00D464008400020605B
:100870006068032109038843A96801436160206817
:100880001C49EA680840696811432A690243114318
:100890002160A06803210902884369690143A160BE
:1008A0006846FFF721FE1448844201D106980AE009
:1008B0001248844201D1079805E01148844201D1D1
:1008C000089800E0029821680904296800D54000D2
:1008D000FFF726FC2A6852088A4200D8401C21688B
:1008E000090404D50107074A490F10400843A081B5
:1008F0000BB030BDF3E9FFFF003801400044004079
:1009000000480040F0FF0000808CC005C00D70471B
:10091000C905C90D018570470FB410B503A9044B73
:10092000044A029800F03AF810BC08BC04B018471A
:10093000050C0008500000200FB41CB50A46521EDA
:100940000192009007A9064B6A46069800F026F827
:10095000009A002111701CBC08BC04B018470000AC
:10096000690B000830B47446641E2578641CAB42E1
:1009700000D21D46635D5B00E31830BC184702E0FF
:1009800008C8121F08C1002AFAD17047704700201A
:1009900001E001C1121F002AFBD17047FFB58DB0E5
:1009A0000F460546002606E025280AD0109A0F9922
:1009B00090476D1C761C28780028F5D1304611B080
:1009C000F0BD00240121674A009400E004436D1C3F
:1009D0002B780846203B98401042F7D128782E28E3
:1009E00015D10420044368786D1C2A280AD101CF50
:1009F0006D1C00900BE000990A22514330394018D9
:100A00006D1C00902878014630390929F3D92878DF
:100A1000692843D006DC0028D0D063280BD0642896
:100A200004D13BE073280FD075284CD0109A0F9951
:100A30009047761C94E03878694608720020487226
:100A400002A80190012003E0386801900020C04313
:100A50003F1D61070CD5002400E0641C00998C4206
:100A60000FDA8442F9DB0199095D0029F5D108E02C
:100A7000002400E0641C8442FCDB0199095D00292C
:100A8000F8D1361907E0019801990078491C0191C5
:100A9000109A0F999047641EF5D261E00A200190E8
:100AA00001CF002802DA40422D2102E0210504D5C1
:100AB0002B216A461172012103E0E10701D02021B8
:100AC000F7E70C9104E00A20019001CF00210C917E
:100AD0000BA90B9108E00199FFF722FB0A460B993D
:100AE0003032491E0B910A700028F4D10B9803A9EB
:100AF000081A20300190600701D5009801E001201C
:100B000000900199884203DD01460198081A00E02F
:100B100000200024009006E002A8109A005D0F99C2
:100B20009047641C761C0C988442F5DB04E0109A14
:100B300030200F999047761C0099481E009000299C
:100B4000F5DC08E00B980B990078491C0B91109A82
:100B50000F999047761C0199481E01900029F1DCFD
:100B60006D1C28E7092801004A68002A06D00A6897
:100B7000531C0B6010704868401E486070470000AE
:100B800030B501214C0489B02046FFF77DFC0121DE
:100B90002046FFF785FC0925ED0601220E21284697
:100BA000FFF72AFC01220F212846FFF725FCE01061
:100BB000069002206946087701224A7700248C7744
:100BC000CA7706A92846FFF7DFFB0120C00306907D
:100BD00006A92846FFF7D8FBE120059440020194BE
:100BE0000294039400900C20054C04906946204622
:100BF000FFF736FE01212046FFF7C2FD09B030BDE8
:100C00000044004070B5074D0446C1B22846FFF7C6
:100C10007FFE80212846FFF7FFFD0028F9D02046FF
:100C200070BD0000003801401CB501214804FFF7E9
:100C30002BFC20200090012069460871002088715B
:100C400003224A71C8710920C006FFF79DFB1CBD35
:100C50001CB501218804FFF717FC0648009000200E
:100C600069460871887103224A71C8710248FFF70A
:100C70008BFB1CBDFF0300000004004870B5012180
:100C80008AB04804FFF700FC01214802FFF714FC7A
:100C90001F20009003206946087100240920CC71B0
:100CA000C006FFF771FB1D4E3046FFF7D9FA03A8C7
:100CB000FFF73DFB0125694603940D7405940794E5
:100CC00003A930460894FFF717FB07221F2130467F
:100CD000FFF7B6FA3046FFF7D3FA01213046FFF7A7
:100CE000B6FA04213046FFF7B0FA0122042130465B
:100CF000FFF7F9FA0C20694608724D728D7202A84E
:100D0000FFF798FB01213046FFF7D4FA0028F9D00D
:100D10003046FFF707FB0AB070BD00000024014019
:100D20009AB0FFF71FFBFFF735FDFFF729FFFFF72D
:100D30008FFFFFF779FFFFF7A1FF944E944F954C7B
:100D40000025954801780029FCD0057093A118A8CA
:100D5000FFF71CFA338893A2052110A8FFF7ECFDDA
:100D6000738890A2052112A8FFF7E6FDB3888DA233
:100D7000052114A8FFF7E0FDF3888AA2052116A833
:100D8000FFF7DAFD88A000886946088287A104A8D9
:100D9000FFF7F0F986A104A8FFF7ECF914A904A85D
:100DA000FFF7E8F982A104A8FFF7E4F912A904A863
:100DB000FFF7E0F97EA104A8FFF7DCF916A904A863
:100DC000FFF7D8F97AA104A8FFF7D4F910A904A86D
:100DD000FFF7D0F976A104A8FFF7CCF96D4904A874
:100DE000891DFFF7C7F972A104A8FFF7C3F9694984
:100DF00004A8FFF7BFF96EA104A8FFF7BBF9654986
:100E000004A8C91CFFF7B6F969A104A8FFF7B2F955
:100E100018A904A8FFF7AEF965A104A8FFF7AAF97D
:100E200064A104A8FFF7A6F904A800F0A9F9594B9A
:100E30003088DB1CDA1E911D03936B4607C3F388D1
:100E40007288B1885CA0FFF767FD01213846FFF783
:100E5000E3FA01282DD102213846FFF7DDFA0128F7
:100E600027D1E1685DA0491CE160FFF755FD322103
:100E7000E068FFF76BF92069002901D1401C20616F
:100E80006169884207DB5DA14248FFF77FF9E560B1
:100E9000012025616062E06A012811D0F188626B4F
:100EA000914201DB002814D0F188914201DA002838
:100EB00019D001213846FFF7AFFA01281CD038E0DD
:100EC00034484FA1801DE562FFF760F900F0F6F8A5
:100ED00037E70120E0622F4848A1801DFFF756F94F
:100EE00000F090F806E02B4845A1801DFFF74EF971
:100EF00000F0B6F8642046E002213846FFF78CFA8D
:100F0000002816D1A0693221401CA061FFF71EF90C
:100F1000E069002901D1401CE061216A884208DBB8
:100F20001C4836A1C01CFFF731F9A5610120E5611D
:100F3000A062606A012801D100F0D2F8A06A0128FD
:100F400001D100F0EEF86421206BFFF7FFF80029D3
:100F500015D101213846FFF75FFA002807D1022199
:100F60003846FFF759FA002801D12561E5600121D3
:100F70003846FFF751FA002801D1E561A561206BE1
:100F8000401C20631420FFF7E5F9DAE65400002046
:100F900000040048000000203C0000204F44313194
:100FA00031310000256400004000000024000000F2
:100FB0007C0000003146000040247C25647C2564D0
:100FC0007C25647C25647C25737C25737C25737C5F
:100FD0004F44313131317C31460A0D0072635F6D0F
:100FE000617463685F6D6F64655F627574746F6E62
:100FF0005F636F756E743D25640A0D00414100000A
:101000003030000010B50924E40620212046FFF707
:101010000CFA3220FFF79EF920212046FFF703FA51
:101020003220FFF797F920212046FFF7FEF9322002
:10103000FFF790F920212046FFF7F5F93220FFF75E
:1010400089F920212046FFF7F0F93220FFF782F9D5
:1010500020212046FFF7E7F93220FFF77BF910BD8A
:1010600010B50924E40620212046FFF7DEF93220DE
:10107000FFF770F920212046FFF7D5F93220FFF75E
:1010800069F920212046FFF7D0F93220FFF762F9F5
:1010900020212046FFF7C7F93220FFF75BF9202116
:1010A0002046FFF7C2F90448FFF754F920212046F3
:1010B000FFF7B9F910BD0000DC05000010B50924E8
:1010C000E40620212046FFF7B0F93220FFF742F96D
:1010D00020212046FFF7A7F93220FFF73BF910BD8A
:1010E00010B50924E40620212046FFF79EF964206C
:1010F000FFF730F920212046FFF795F96420FFF72C
:1011000029F920212046FFF790F96420FFF722F902
:1011100020212046FFF787F97D200001FFF71AF90B
:1011200010BD10B50924E40620212046FFF77DF903
:101130006420FFF70FF920212046FFF774F964209F
:10114000FFF708F920212046FFF76FF96420FFF729
:1011500001F920212046FFF766F96420FFF7FAF82D
:1011600020212046FFF761F96420FFF7F3F82021E2
:101170002046FFF758F97D200001FFF7EBF810BD7E
:1011800070B50446074D08E02846C1694906FCD5FC
:101190002178FFF7BDFB2078641C20780028F3D16C
:1011A00070BD000000440040C8110008000000208D
:1011B000540000007E0900081C12000854000020A2
:1011C0000C0400008E090008303000303000303050
:1011D000000000000000000000000000030000000C
:1011E00000000000000000000300000000000000FC
:1011F000000000000000000000000000D80E000009
:1012000000000000000000000000010203040102D1
:0C121000030406070809000000000000AD
:04000005080000B53A
:00000001FF
